{
  "contractName": "DIDRegistry",
  "abi": [
    {
      "anonymous": false,
      "inputs": [
        {
          "indexed": true,
          "internalType": "string",
          "name": "did",
          "type": "string"
        },
        {
          "indexed": false,
          "internalType": "string",
          "name": "document",
          "type": "string"
        }
      ],
      "name": "DIDRegistered",
      "type": "event"
    },
    {
      "inputs": [
        {
          "internalType": "string",
          "name": "did",
          "type": "string"
        },
        {
          "internalType": "string",
          "name": "document",
          "type": "string"
        }
      ],
      "name": "registerDID",
      "outputs": [],
      "stateMutability": "nonpayable",
      "type": "function"
    },
    {
      "inputs": [
        {
          "internalType": "string",
          "name": "did",
          "type": "string"
        }
      ],
      "name": "searchDIDDocument",
      "outputs": [
        {
          "internalType": "string",
          "name": "document",
          "type": "string"
        }
      ],
      "stateMutability": "view",
      "type": "function",
      "constant": true
    },
    {
      "inputs": [],
      "name": "getAllDIDs",
      "outputs": [
        {
          "internalType": "string[]",
          "name": "",
          "type": "string[]"
        }
      ],
      "stateMutability": "view",
      "type": "function",
      "constant": true
    }
  ],
  "bytecode": "0x608060405234801561001057600080fd5b50610f66806100206000396000f3fe608060405234801561001057600080fd5b50600436106100415760003560e01c80634c95303a146100465780637e5c39e914610064578063b8ebe24114610080575b600080fd5b61004e6100b0565b60405161005b91906106ad565b60405180910390f35b61007e60048036038101906100799190610818565b610189565b005b61009a60048036038101906100959190610890565b610313565b6040516100a79190610923565b60405180910390f35b60606001805480602002602001604051908101604052809291908181526020016000905b828210156101805783829060005260206000200180546100f390610974565b80601f016020809104026020016040519081016040528092919081815260200182805461011f90610974565b801561016c5780601f106101415761010080835404028352916020019161016c565b820191906000526020600020905b81548152906001019060200180831161014f57829003601f168201915b5050505050815260200190600101906100d4565b50505050905090565b60208251146101cd576040517f08c379a00000000000000000000000000000000000000000000000000000000081526004016101c4906109f1565b60405180910390fd5b7fe8ac01308c8833eb7003eda74a0ff8ab865427376ce48430197fa56c084164eb6101fb8360006009610418565b60405160200161020b9190610a4d565b6040516020818303038152906040528051906020012014610261576040517f08c379a000000000000000000000000000000000000000000000000000000000815260040161025890610ab0565b60405180910390fd5b806000836040516102729190610a4d565b9081526020016040518091039020908161028c9190610c86565b506001829080600181540180825580915050600190039060005260206000200160009091909190915090816102c19190610c86565b50816040516102d09190610a4d565b60405180910390207f3821fb4ad323658be2eee296ee06377da01cc275fe45548c9b27eca563bcdbf6826040516103079190610923565b60405180910390a25050565b6060600080836040516103269190610a4d565b90815260200160405180910390209050600081805461034490610974565b905011610386576040517f08c379a000000000000000000000000000000000000000000000000000000000815260040161037d90610da4565b60405180910390fd5b80805461039290610974565b80601f01602080910402602001604051908101604052809291908181526020018280546103be90610974565b801561040b5780601f106103e05761010080835404028352916020019161040b565b820191906000526020600020905b8154815290600101906020018083116103ee57829003601f168201915b5050505050915050919050565b606060008490506000838561042d9190610df3565b90508151811115610473576040517f08c379a000000000000000000000000000000000000000000000000000000000815260040161046a90610e99565b60405180910390fd5b60008467ffffffffffffffff81111561048f5761048e6106ed565b5b6040519080825280601f01601f1916602001820160405280156104c15781602001600182028036833780820191505090505b50905060005b8581101561054d578381886104dc9190610df3565b815181106104ed576104ec610eb9565b5b602001015160f81c60f81b82828151811061050b5761050a610eb9565b5b60200101907effffffffffffffffffffffffffffffffffffffffffffffffffffffffffffff1916908160001a905350808061054590610ee8565b9150506104c7565b508093505050509392505050565b600081519050919050565b600082825260208201905092915050565b6000819050602082019050919050565b600081519050919050565b600082825260208201905092915050565b60005b838110156105c15780820151818401526020810190506105a6565b60008484015250505050565b6000601f19601f8301169050919050565b60006105e982610587565b6105f38185610592565b93506106038185602086016105a3565b61060c816105cd565b840191505092915050565b600061062383836105de565b905092915050565b6000602082019050919050565b60006106438261055b565b61064d8185610566565b93508360208202850161065f85610577565b8060005b8581101561069b578484038952815161067c8582610617565b94506106878361062b565b925060208a01995050600181019050610663565b50829750879550505050505092915050565b600060208201905081810360008301526106c78184610638565b905092915050565b6000604051905090565b600080fd5b600080fd5b600080fd5b600080fd5b7f4e487b7100000000000000000000000000000000000000000000000000000000600052604160045260246000fd5b610725826105cd565b810181811067ffffffffffffffff82111715610744576107436106ed565b5b80604052505050565b60006107576106cf565b9050610763828261071c565b919050565b600067ffffffffffffffff821115610783576107826106ed565b5b61078c826105cd565b9050602081019050919050565b82818337600083830152505050565b60006107bb6107b684610768565b61074d565b9050828152602081018484840111156107d7576107d66106e8565b5b6107e2848285610799565b509392505050565b600082601f8301126107ff576107fe6106e3565b5b813561080f8482602086016107a8565b91505092915050565b6000806040838503121561082f5761082e6106d9565b5b600083013567ffffffffffffffff81111561084d5761084c6106de565b5b610859858286016107ea565b925050602083013567ffffffffffffffff81111561087a576108796106de565b5b610886858286016107ea565b9150509250929050565b6000602082840312156108a6576108a56106d9565b5b600082013567ffffffffffffffff8111156108c4576108c36106de565b5b6108d0848285016107ea565b91505092915050565b600082825260208201905092915050565b60006108f582610587565b6108ff81856108d9565b935061090f8185602086016105a3565b610918816105cd565b840191505092915050565b6000602082019050818103600083015261093d81846108ea565b905092915050565b7f4e487b7100000000000000000000000000000000000000000000000000000000600052602260045260246000fd5b6000600282049050600182168061098c57607f821691505b60208210810361099f5761099e610945565b5b50919050565b7f444944206d7573742062652033322063686172616374657273206c6f6e672e00600082015250565b60006109db601f836108d9565b91506109e6826109a5565b602082019050919050565b60006020820190508181036000830152610a0a816109ce565b9050919050565b600081905092915050565b6000610a2782610587565b610a318185610a11565b9350610a418185602086016105a3565b80840191505092915050565b6000610a598284610a1c565b915081905092915050565b7f444944206d757374207374617274207769746820276469643a656273693a272e600082015250565b6000610a9a6020836108d9565b9150610aa582610a64565b602082019050919050565b60006020820190508181036000830152610ac981610a8d565b9050919050565b60008190508160005260206000209050919050565b60006020601f8301049050919050565b600082821b905092915050565b600060088302610b327fffffffffffffffffffffffffffffffffffffffffffffffffffffffffffffffff82610af5565b610b3c8683610af5565b95508019841693508086168417925050509392505050565b6000819050919050565b6000819050919050565b6000610b83610b7e610b7984610b54565b610b5e565b610b54565b9050919050565b6000819050919050565b610b9d83610b68565b610bb1610ba982610b8a565b848454610b02565b825550505050565b600090565b610bc6610bb9565b610bd1818484610b94565b505050565b5b81811015610bf557610bea600082610bbe565b600181019050610bd7565b5050565b601f821115610c3a57610c0b81610ad0565b610c1484610ae5565b81016020851015610c23578190505b610c37610c2f85610ae5565b830182610bd6565b50505b505050565b600082821c905092915050565b6000610c5d60001984600802610c3f565b1980831691505092915050565b6000610c768383610c4c565b9150826002028217905092915050565b610c8f82610587565b67ffffffffffffffff811115610ca857610ca76106ed565b5b610cb28254610974565b610cbd828285610bf9565b600060209050601f831160018114610cf05760008415610cde578287015190505b610ce88582610c6a565b865550610d50565b601f198416610cfe86610ad0565b60005b82811015610d2657848901518255600182019150602085019450602081019050610d01565b86831015610d435784890151610d3f601f891682610c4c565b8355505b6001600288020188555050505b505050505050565b7f444944206e6f7420666f756e642e000000000000000000000000000000000000600082015250565b6000610d8e600e836108d9565b9150610d9982610d58565b602082019050919050565b60006020820190508181036000830152610dbd81610d81565b9050919050565b7f4e487b7100000000000000000000000000000000000000000000000000000000600052601160045260246000fd5b6000610dfe82610b54565b9150610e0983610b54565b9250828201905080821115610e2157610e20610dc4565b5b92915050565b7f54686520656e6420696e646578206d7573742062652077697468696e2074686560008201527f20626f756e6473206f662074686520737472696e672e00000000000000000000602082015250565b6000610e836036836108d9565b9150610e8e82610e27565b604082019050919050565b60006020820190508181036000830152610eb281610e76565b9050919050565b7f4e487b7100000000000000000000000000000000000000000000000000000000600052603260045260246000fd5b6000610ef382610b54565b91507fffffffffffffffffffffffffffffffffffffffffffffffffffffffffffffffff8203610f2557610f24610dc4565b5b60018201905091905056fea2646970667358221220d552db07b1a50258c0c8ecb803e51a60d0e4cf25566c643d5c44d7cf99868e6c64736f6c63430008120033",
  "immutableReferences": {},
  "source": "// SPDX-License-Identifier: MIT\r\npragma solidity ^0.8.0;\r\n\r\ncontract DIDRegistry {\r\n\r\n    mapping(string => string) private dids;\r\n    string[] private didList;\r\n\r\n    event DIDRegistered(string indexed did, string document);\r\n\r\n    function registerDID(string memory did, string memory document) public {\r\n        require(bytes(did).length == 32, \"DID must be 32 characters long.\");\r\n        require(keccak256(abi.encodePacked(substring(did, 0, 9))) == keccak256(\"did:ebsi:\"), \"DID must start with 'did:ebsi:'.\");\r\n        \r\n        dids[did] = document;\r\n        didList.push(did);\r\n        emit DIDRegistered(did, document);\r\n    }\r\n\r\n    function searchDIDDocument(string memory did) public view returns (string memory document) {\r\n        string storage didDocument = dids[did];\r\n        require(bytes(didDocument).length > 0, \"DID not found.\");\r\n        return didDocument;\r\n    }\r\n\r\n    function getAllDIDs() public view returns (string[] memory) {\r\n        return didList;\r\n    }\r\n\r\n    function substring(string memory _base, uint256 _begin, uint256 _length) internal pure returns (string memory) {\r\n        bytes memory _baseBytes = bytes(_base);\r\n        uint256 _end = _begin + _length;\r\n        require(_end <= _baseBytes.length, \"The end index must be within the bounds of the string.\");\r\n\r\n        bytes memory _tempBytes = new bytes(_length);\r\n        for (uint256 i = 0; i < _length; i++) {\r\n            _tempBytes[i] = _baseBytes[_begin + i];\r\n        }\r\n        return string(_tempBytes);\r\n    }\r\n}\r\n",
  "sourcePath": "C:\\Users\\edlv2\\VsCode Projects\\TFG\\contracts\\DIDRegistry.sol",
  "compiler": {
    "name": "solc",
    "version": "0.8.18+commit.87f61d96.Emscripten.clang"
  },
  "schemaVersion": "3.4.12",
  "updatedAt": "2023-05-15T21:03:44.289Z",
  "networkType": "ethereum",
  "devdoc": {
    "kind": "dev",
    "methods": {},
    "version": 1
  },
  "userdoc": {
    "kind": "user",
    "methods": {},
    "version": 1
  }
}