{
  "contractName": "DIDRegistry",
  "abi": [
    {
      "anonymous": false,
      "inputs": [
        {
          "indexed": true,
          "internalType": "string",
          "name": "did",
          "type": "string"
        },
        {
          "indexed": false,
          "internalType": "string",
          "name": "document",
          "type": "string"
        }
      ],
      "name": "DIDRegistered",
      "type": "event"
    },
    {
      "inputs": [
        {
          "internalType": "string",
          "name": "did",
          "type": "string"
        },
        {
          "internalType": "string",
          "name": "document",
          "type": "string"
        }
      ],
      "name": "registerDID",
      "outputs": [],
      "stateMutability": "nonpayable",
      "type": "function"
    },
    {
      "inputs": [
        {
          "internalType": "string",
          "name": "did",
          "type": "string"
        }
      ],
      "name": "searchDIDDocument",
      "outputs": [
        {
          "internalType": "string",
          "name": "document",
          "type": "string"
        }
      ],
      "stateMutability": "view",
      "type": "function"
    },
    {
      "inputs": [],
      "name": "getAllDIDs",
      "outputs": [
        {
          "internalType": "string[]",
          "name": "",
          "type": "string[]"
        }
      ],
      "stateMutability": "view",
      "type": "function"
    }
  ],
  "bytecode": "0x608060405234801561001057600080fd5b50610bb7806100206000396000f3fe608060405234801561001057600080fd5b50600436106100415760003560e01c80634c95303a146100465780637e5c39e914610064578063b8ebe24114610080575b600080fd5b61004e6100b0565b60405161005b91906104d6565b60405180910390f35b61007e60048036038101906100799190610641565b610189565b005b61009a600480360381019061009591906106b9565b61027f565b6040516100a7919061074c565b60405180910390f35b60606001805480602002602001604051908101604052809291908181526020016000905b828210156101805783829060005260206000200180546100f39061079d565b80601f016020809104026020016040519081016040528092919081815260200182805461011f9061079d565b801561016c5780601f106101415761010080835404028352916020019161016c565b820191906000526020600020905b81548152906001019060200180831161014f57829003601f168201915b5050505050815260200190600101906100d4565b50505050905090565b60208251146101cd576040517f08c379a00000000000000000000000000000000000000000000000000000000081526004016101c49061081a565b60405180910390fd5b806000836040516101de9190610876565b908152602001604051809103902090816101f89190610a43565b5060018290806001815401808255809150506001900390600052602060002001600090919091909150908161022d9190610a43565b508160405161023c9190610876565b60405180910390207f3821fb4ad323658be2eee296ee06377da01cc275fe45548c9b27eca563bcdbf682604051610273919061074c565b60405180910390a25050565b6060600080836040516102929190610876565b9081526020016040518091039020905060008180546102b09061079d565b9050116102f2576040517f08c379a00000000000000000000000000000000000000000000000000000000081526004016102e990610b61565b60405180910390fd5b8080546102fe9061079d565b80601f016020809104026020016040519081016040528092919081815260200182805461032a9061079d565b80156103775780601f1061034c57610100808354040283529160200191610377565b820191906000526020600020905b81548152906001019060200180831161035a57829003601f168201915b5050505050915050919050565b600081519050919050565b600082825260208201905092915050565b6000819050602082019050919050565b600081519050919050565b600082825260208201905092915050565b60005b838110156103ea5780820151818401526020810190506103cf565b60008484015250505050565b6000601f19601f8301169050919050565b6000610412826103b0565b61041c81856103bb565b935061042c8185602086016103cc565b610435816103f6565b840191505092915050565b600061044c8383610407565b905092915050565b6000602082019050919050565b600061046c82610384565b610476818561038f565b935083602082028501610488856103a0565b8060005b858110156104c457848403895281516104a58582610440565b94506104b083610454565b925060208a0199505060018101905061048c565b50829750879550505050505092915050565b600060208201905081810360008301526104f08184610461565b905092915050565b6000604051905090565b600080fd5b600080fd5b600080fd5b600080fd5b7f4e487b7100000000000000000000000000000000000000000000000000000000600052604160045260246000fd5b61054e826103f6565b810181811067ffffffffffffffff8211171561056d5761056c610516565b5b80604052505050565b60006105806104f8565b905061058c8282610545565b919050565b600067ffffffffffffffff8211156105ac576105ab610516565b5b6105b5826103f6565b9050602081019050919050565b82818337600083830152505050565b60006105e46105df84610591565b610576565b905082815260208101848484011115610600576105ff610511565b5b61060b8482856105c2565b509392505050565b600082601f8301126106285761062761050c565b5b81356106388482602086016105d1565b91505092915050565b6000806040838503121561065857610657610502565b5b600083013567ffffffffffffffff81111561067657610675610507565b5b61068285828601610613565b925050602083013567ffffffffffffffff8111156106a3576106a2610507565b5b6106af85828601610613565b9150509250929050565b6000602082840312156106cf576106ce610502565b5b600082013567ffffffffffffffff8111156106ed576106ec610507565b5b6106f984828501610613565b91505092915050565b600082825260208201905092915050565b600061071e826103b0565b6107288185610702565b93506107388185602086016103cc565b610741816103f6565b840191505092915050565b600060208201905081810360008301526107668184610713565b905092915050565b7f4e487b7100000000000000000000000000000000000000000000000000000000600052602260045260246000fd5b600060028204905060018216806107b557607f821691505b6020821081036107c8576107c761076e565b5b50919050565b7f444944206d7573742062652033322063686172616374657273206c6f6e672e00600082015250565b6000610804601f83610702565b915061080f826107ce565b602082019050919050565b60006020820190508181036000830152610833816107f7565b9050919050565b600081905092915050565b6000610850826103b0565b61085a818561083a565b935061086a8185602086016103cc565b80840191505092915050565b60006108828284610845565b915081905092915050565b60008190508160005260206000209050919050565b60006020601f8301049050919050565b600082821b905092915050565b6000600883026108ef7fffffffffffffffffffffffffffffffffffffffffffffffffffffffffffffffff826108b2565b6108f986836108b2565b95508019841693508086168417925050509392505050565b6000819050919050565b6000819050919050565b600061094061093b61093684610911565b61091b565b610911565b9050919050565b6000819050919050565b61095a83610925565b61096e61096682610947565b8484546108bf565b825550505050565b600090565b610983610976565b61098e818484610951565b505050565b5b818110156109b2576109a760008261097b565b600181019050610994565b5050565b601f8211156109f7576109c88161088d565b6109d1846108a2565b810160208510156109e0578190505b6109f46109ec856108a2565b830182610993565b50505b505050565b600082821c905092915050565b6000610a1a600019846008026109fc565b1980831691505092915050565b6000610a338383610a09565b9150826002028217905092915050565b610a4c826103b0565b67ffffffffffffffff811115610a6557610a64610516565b5b610a6f825461079d565b610a7a8282856109b6565b600060209050601f831160018114610aad5760008415610a9b578287015190505b610aa58582610a27565b865550610b0d565b601f198416610abb8661088d565b60005b82811015610ae357848901518255600182019150602085019450602081019050610abe565b86831015610b005784890151610afc601f891682610a09565b8355505b6001600288020188555050505b505050505050565b7f444944206e6f7420666f756e642e000000000000000000000000000000000000600082015250565b6000610b4b600e83610702565b9150610b5682610b15565b602082019050919050565b60006020820190508181036000830152610b7a81610b3e565b905091905056fea26469706673582212206995b0c89ae6b910ff4719acdf7778fe72249dd6406156af8c0f96782d76326364736f6c63430008120033",
  "immutableReferences": {},
  "source": "// SPDX-License-Identifier: MIT\r\npragma solidity ^0.8.0;\r\n\r\ncontract DIDRegistry {\r\n\r\n    mapping(string => string) private dids;\r\n    string[] private didList;\r\n\r\n    event DIDRegistered(string indexed did, string document);\r\n\r\n    function registerDID(string memory did, string memory document) public {\r\n        require(bytes(did).length == 32, \"DID must be 32 characters long.\");\r\n        \r\n        dids[did] = document;\r\n        didList.push(did);\r\n        emit DIDRegistered(did, document);\r\n    }\r\n\r\n    function searchDIDDocument(string memory did) public view returns (string memory document) {\r\n        string storage didDocument = dids[did];\r\n        require(bytes(didDocument).length > 0, \"DID not found.\");\r\n        return didDocument;\r\n    }\r\n\r\n    function getAllDIDs() public view returns (string[] memory) {\r\n        return didList;\r\n    }\r\n}\r\n",
  "sourcePath": "C:\\Users\\edlv2\\VsCode Projects\\TFG\\contracts\\DIDRegistry.sol",
  "compiler": {
    "name": "solc",
    "version": "0.8.18+commit.87f61d96.Emscripten.clang"
  },
  "schemaVersion": "3.4.14",
  "updatedAt": "2023-05-25T00:11:16.578Z",
  "devdoc": {
    "kind": "dev",
    "methods": {},
    "version": 1
  },
  "userdoc": {
    "kind": "user",
    "methods": {},
    "version": 1
  }
}