{
  "contractName": "TrustedSchemaRegistry",
  "abi": [
    {
      "anonymous": false,
      "inputs": [
        {
          "indexed": true,
          "internalType": "string",
          "name": "schemaId",
          "type": "string"
        },
        {
          "indexed": false,
          "internalType": "string",
          "name": "schemaJson",
          "type": "string"
        }
      ],
      "name": "SchemaRegistered",
      "type": "event"
    },
    {
      "inputs": [
        {
          "internalType": "string",
          "name": "schemaId",
          "type": "string"
        },
        {
          "internalType": "string",
          "name": "schemaJson",
          "type": "string"
        }
      ],
      "name": "registerSchema",
      "outputs": [],
      "stateMutability": "nonpayable",
      "type": "function"
    },
    {
      "inputs": [
        {
          "internalType": "string",
          "name": "schemaId",
          "type": "string"
        }
      ],
      "name": "getSchema",
      "outputs": [
        {
          "internalType": "string",
          "name": "schemaJson",
          "type": "string"
        }
      ],
      "stateMutability": "view",
      "type": "function",
      "constant": true
    }
  ],
  "bytecode": "0x608060405234801561001057600080fd5b50610ada806100206000396000f3fe608060405234801561001057600080fd5b50600436106100365760003560e01c806376cf58ef1461003b578063f1a03f1b14610057575b600080fd5b61005560048036038101906100509190610457565b610087565b005b610071600480360381019061006c91906104cf565b6101f8565b60405161007e9190610597565b60405180910390f35b60008251116100cb576040517f08c379a00000000000000000000000000000000000000000000000000000000081526004016100c290610605565b60405180910390fd5b600081511161010f576040517f08c379a000000000000000000000000000000000000000000000000000000000815260040161010690610671565b60405180910390fd5b6000808360405161012091906106cd565b9081526020016040518091039020805461013990610713565b90501461017b576040517f08c379a000000000000000000000000000000000000000000000000000000000815260040161017290610790565b60405180910390fd5b8060008360405161018c91906106cd565b908152602001604051809103902090816101a69190610966565b50816040516101b591906106cd565b60405180910390207f4574cea21b42336b945bdff0cad6c2fe8d1c2e0006ea0090a19d7459404914de826040516101ec9190610597565b60405180910390a25050565b60606000808360405161020b91906106cd565b90815260200160405180910390209050600081805461022990610713565b90501161026b576040517f08c379a000000000000000000000000000000000000000000000000000000000815260040161026290610a84565b60405180910390fd5b80805461027790610713565b80601f01602080910402602001604051908101604052809291908181526020018280546102a390610713565b80156102f05780601f106102c5576101008083540402835291602001916102f0565b820191906000526020600020905b8154815290600101906020018083116102d357829003601f168201915b5050505050915050919050565b6000604051905090565b600080fd5b600080fd5b600080fd5b600080fd5b6000601f19601f8301169050919050565b7f4e487b7100000000000000000000000000000000000000000000000000000000600052604160045260246000fd5b6103648261031b565b810181811067ffffffffffffffff821117156103835761038261032c565b5b80604052505050565b60006103966102fd565b90506103a2828261035b565b919050565b600067ffffffffffffffff8211156103c2576103c161032c565b5b6103cb8261031b565b9050602081019050919050565b82818337600083830152505050565b60006103fa6103f5846103a7565b61038c565b90508281526020810184848401111561041657610415610316565b5b6104218482856103d8565b509392505050565b600082601f83011261043e5761043d610311565b5b813561044e8482602086016103e7565b91505092915050565b6000806040838503121561046e5761046d610307565b5b600083013567ffffffffffffffff81111561048c5761048b61030c565b5b61049885828601610429565b925050602083013567ffffffffffffffff8111156104b9576104b861030c565b5b6104c585828601610429565b9150509250929050565b6000602082840312156104e5576104e4610307565b5b600082013567ffffffffffffffff8111156105035761050261030c565b5b61050f84828501610429565b91505092915050565b600081519050919050565b600082825260208201905092915050565b60005b83811015610552578082015181840152602081019050610537565b60008484015250505050565b600061056982610518565b6105738185610523565b9350610583818560208601610534565b61058c8161031b565b840191505092915050565b600060208201905081810360008301526105b1818461055e565b905092915050565b7f536368656d61204944206d757374206e6f7420626520656d7074792e00000000600082015250565b60006105ef601c83610523565b91506105fa826105b9565b602082019050919050565b6000602082019050818103600083015261061e816105e2565b9050919050565b7f536368656d61204a534f4e206d757374206e6f7420626520656d7074792e0000600082015250565b600061065b601e83610523565b915061066682610625565b602082019050919050565b6000602082019050818103600083015261068a8161064e565b9050919050565b600081905092915050565b60006106a782610518565b6106b18185610691565b93506106c1818560208601610534565b80840191505092915050565b60006106d9828461069c565b915081905092915050565b7f4e487b7100000000000000000000000000000000000000000000000000000000600052602260045260246000fd5b6000600282049050600182168061072b57607f821691505b60208210810361073e5761073d6106e4565b5b50919050565b7f536368656d6120494420616c7265616479206578697374732e00000000000000600082015250565b600061077a601983610523565b915061078582610744565b602082019050919050565b600060208201905081810360008301526107a98161076d565b9050919050565b60008190508160005260206000209050919050565b60006020601f8301049050919050565b600082821b905092915050565b6000600883026108127fffffffffffffffffffffffffffffffffffffffffffffffffffffffffffffffff826107d5565b61081c86836107d5565b95508019841693508086168417925050509392505050565b6000819050919050565b6000819050919050565b600061086361085e61085984610834565b61083e565b610834565b9050919050565b6000819050919050565b61087d83610848565b6108916108898261086a565b8484546107e2565b825550505050565b600090565b6108a6610899565b6108b1818484610874565b505050565b5b818110156108d5576108ca60008261089e565b6001810190506108b7565b5050565b601f82111561091a576108eb816107b0565b6108f4846107c5565b81016020851015610903578190505b61091761090f856107c5565b8301826108b6565b50505b505050565b600082821c905092915050565b600061093d6000198460080261091f565b1980831691505092915050565b6000610956838361092c565b9150826002028217905092915050565b61096f82610518565b67ffffffffffffffff8111156109885761098761032c565b5b6109928254610713565b61099d8282856108d9565b600060209050601f8311600181146109d057600084156109be578287015190505b6109c8858261094a565b865550610a30565b601f1984166109de866107b0565b60005b82811015610a06578489015182556001820191506020850194506020810190506109e1565b86831015610a235784890151610a1f601f89168261092c565b8355505b6001600288020188555050505b505050505050565b7f536368656d61204944206e6f7420666f756e642e000000000000000000000000600082015250565b6000610a6e601483610523565b9150610a7982610a38565b602082019050919050565b60006020820190508181036000830152610a9d81610a61565b905091905056fea2646970667358221220b5f57fac04f16773842aa168787417ab01aca32a11b918c91c7c0082f218ad3b64736f6c63430008120033",
  "immutableReferences": {},
  "source": "// SPDX-License-Identifier: MIT\r\npragma solidity ^0.8.0;\r\n\r\ncontract TrustedSchemaRegistry {\r\n    \r\n    mapping(string => string) private schemas;\r\n\r\n    event SchemaRegistered(string indexed schemaId, string schemaJson);\r\n\r\n    function registerSchema(string memory schemaId, string memory schemaJson) public {\r\n        require(bytes(schemaId).length > 0, \"Schema ID must not be empty.\");\r\n        require(bytes(schemaJson).length > 0, \"Schema JSON must not be empty.\");\r\n        require(bytes(schemas[schemaId]).length == 0, \"Schema ID already exists.\");\r\n\r\n        schemas[schemaId] = schemaJson;\r\n        emit SchemaRegistered(schemaId, schemaJson);\r\n    }\r\n\r\n    function getSchema(string memory schemaId) public view returns (string memory schemaJson) {\r\n        string storage storedSchema = schemas[schemaId];\r\n        require(bytes(storedSchema).length > 0, \"Schema ID not found.\");\r\n        return storedSchema;\r\n    }\r\n}\r\n",
  "sourcePath": "C:\\Users\\edlv2\\VsCode Projects\\TFG\\contracts\\TrustedSchemaRegistry.sol",
  "compiler": {
    "name": "solc",
    "version": "0.8.18+commit.87f61d96.Emscripten.clang"
  },
  "schemaVersion": "3.4.12",
  "updatedAt": "2023-05-15T21:03:44.299Z",
  "networkType": "ethereum",
  "devdoc": {
    "kind": "dev",
    "methods": {},
    "version": 1
  },
  "userdoc": {
    "kind": "user",
    "methods": {},
    "version": 1
  }
}