{
  "contractName": "TrustedSchemaRegistry",
  "abi": [
    {
      "anonymous": false,
      "inputs": [
        {
          "indexed": true,
          "internalType": "string",
          "name": "schemaId",
          "type": "string"
        },
        {
          "indexed": false,
          "internalType": "string",
          "name": "schemaJson",
          "type": "string"
        }
      ],
      "name": "SchemaRegistered",
      "type": "event"
    },
    {
      "inputs": [
        {
          "internalType": "string",
          "name": "schemaId",
          "type": "string"
        },
        {
          "internalType": "string",
          "name": "schemaJson",
          "type": "string"
        }
      ],
      "name": "registerSchema",
      "outputs": [],
      "stateMutability": "nonpayable",
      "type": "function"
    },
    {
      "inputs": [
        {
          "internalType": "string",
          "name": "schemaId",
          "type": "string"
        }
      ],
      "name": "getSchema",
      "outputs": [
        {
          "internalType": "string",
          "name": "schemaJson",
          "type": "string"
        }
      ],
      "stateMutability": "view",
      "type": "function"
    }
  ],
  "bytecode": "0x608060405234801561001057600080fd5b50610a02806100206000396000f3fe608060405234801561001057600080fd5b50600436106100365760003560e01c806376cf58ef1461003b578063f1a03f1b14610057575b600080fd5b610055600480360381019061005091906103eb565b610087565b005b610071600480360381019061006c9190610463565b61018c565b60405161007e919061052b565b60405180910390f35b60008251116100cb576040517f08c379a00000000000000000000000000000000000000000000000000000000081526004016100c290610599565b60405180910390fd5b600081511161010f576040517f08c379a000000000000000000000000000000000000000000000000000000000815260040161010690610605565b60405180910390fd5b806000836040516101209190610661565b9081526020016040518091039020908161013a919061088e565b50816040516101499190610661565b60405180910390207f4574cea21b42336b945bdff0cad6c2fe8d1c2e0006ea0090a19d7459404914de82604051610180919061052b565b60405180910390a25050565b60606000808360405161019f9190610661565b9081526020016040518091039020905060008180546101bd906106a7565b9050116101ff576040517f08c379a00000000000000000000000000000000000000000000000000000000081526004016101f6906109ac565b60405180910390fd5b80805461020b906106a7565b80601f0160208091040260200160405190810160405280929190818152602001828054610237906106a7565b80156102845780601f1061025957610100808354040283529160200191610284565b820191906000526020600020905b81548152906001019060200180831161026757829003601f168201915b5050505050915050919050565b6000604051905090565b600080fd5b600080fd5b600080fd5b600080fd5b6000601f19601f8301169050919050565b7f4e487b7100000000000000000000000000000000000000000000000000000000600052604160045260246000fd5b6102f8826102af565b810181811067ffffffffffffffff82111715610317576103166102c0565b5b80604052505050565b600061032a610291565b905061033682826102ef565b919050565b600067ffffffffffffffff821115610356576103556102c0565b5b61035f826102af565b9050602081019050919050565b82818337600083830152505050565b600061038e6103898461033b565b610320565b9050828152602081018484840111156103aa576103a96102aa565b5b6103b584828561036c565b509392505050565b600082601f8301126103d2576103d16102a5565b5b81356103e284826020860161037b565b91505092915050565b600080604083850312156104025761040161029b565b5b600083013567ffffffffffffffff8111156104205761041f6102a0565b5b61042c858286016103bd565b925050602083013567ffffffffffffffff81111561044d5761044c6102a0565b5b610459858286016103bd565b9150509250929050565b6000602082840312156104795761047861029b565b5b600082013567ffffffffffffffff811115610497576104966102a0565b5b6104a3848285016103bd565b91505092915050565b600081519050919050565b600082825260208201905092915050565b60005b838110156104e65780820151818401526020810190506104cb565b60008484015250505050565b60006104fd826104ac565b61050781856104b7565b93506105178185602086016104c8565b610520816102af565b840191505092915050565b6000602082019050818103600083015261054581846104f2565b905092915050565b7f536368656d61204944206d757374206e6f7420626520656d7074792e00000000600082015250565b6000610583601c836104b7565b915061058e8261054d565b602082019050919050565b600060208201905081810360008301526105b281610576565b9050919050565b7f536368656d61204a534f4e206d757374206e6f7420626520656d7074792e0000600082015250565b60006105ef601e836104b7565b91506105fa826105b9565b602082019050919050565b6000602082019050818103600083015261061e816105e2565b9050919050565b600081905092915050565b600061063b826104ac565b6106458185610625565b93506106558185602086016104c8565b80840191505092915050565b600061066d8284610630565b915081905092915050565b7f4e487b7100000000000000000000000000000000000000000000000000000000600052602260045260246000fd5b600060028204905060018216806106bf57607f821691505b6020821081036106d2576106d1610678565b5b50919050565b60008190508160005260206000209050919050565b60006020601f8301049050919050565b600082821b905092915050565b60006008830261073a7fffffffffffffffffffffffffffffffffffffffffffffffffffffffffffffffff826106fd565b61074486836106fd565b95508019841693508086168417925050509392505050565b6000819050919050565b6000819050919050565b600061078b6107866107818461075c565b610766565b61075c565b9050919050565b6000819050919050565b6107a583610770565b6107b96107b182610792565b84845461070a565b825550505050565b600090565b6107ce6107c1565b6107d981848461079c565b505050565b5b818110156107fd576107f26000826107c6565b6001810190506107df565b5050565b601f82111561084257610813816106d8565b61081c846106ed565b8101602085101561082b578190505b61083f610837856106ed565b8301826107de565b50505b505050565b600082821c905092915050565b600061086560001984600802610847565b1980831691505092915050565b600061087e8383610854565b9150826002028217905092915050565b610897826104ac565b67ffffffffffffffff8111156108b0576108af6102c0565b5b6108ba82546106a7565b6108c5828285610801565b600060209050601f8311600181146108f857600084156108e6578287015190505b6108f08582610872565b865550610958565b601f198416610906866106d8565b60005b8281101561092e57848901518255600182019150602085019450602081019050610909565b8683101561094b5784890151610947601f891682610854565b8355505b6001600288020188555050505b505050505050565b7f536368656d61204944206e6f7420666f756e642e000000000000000000000000600082015250565b60006109966014836104b7565b91506109a182610960565b602082019050919050565b600060208201905081810360008301526109c581610989565b905091905056fea26469706673582212200e8083d96f44ed6923768da5de0abdf4e9c09616374e5a5066e700ce94bf8e1a64736f6c63430008120033",
  "immutableReferences": {},
  "source": "// SPDX-License-Identifier: MIT\r\npragma solidity ^0.8.0;\r\n\r\ncontract TrustedSchemaRegistry {\r\n    \r\n    mapping(string => string) private schemas;\r\n\r\n    event SchemaRegistered(string indexed schemaId, string schemaJson);\r\n\r\n    function registerSchema(string memory schemaId, string memory schemaJson) public {\r\n        require(bytes(schemaId).length > 0, \"Schema ID must not be empty.\");\r\n        require(bytes(schemaJson).length > 0, \"Schema JSON must not be empty.\");\r\n\r\n        schemas[schemaId] = schemaJson;\r\n        emit SchemaRegistered(schemaId, schemaJson);\r\n    }\r\n\r\n    function getSchema(string memory schemaId) public view returns (string memory schemaJson) {\r\n        string storage storedSchema = schemas[schemaId];\r\n        require(bytes(storedSchema).length > 0, \"Schema ID not found.\");\r\n        return storedSchema;\r\n    }\r\n}\r\n",
  "sourcePath": "C:\\Users\\edlv2\\VsCode Projects\\TFG\\contracts\\TrustedSchemaRegistry.sol",
  "compiler": {
    "name": "solc",
    "version": "0.8.18+commit.87f61d96.Emscripten.clang"
  },
  "schemaVersion": "3.4.14",
  "updatedAt": "2023-05-25T00:11:16.586Z",
  "devdoc": {
    "kind": "dev",
    "methods": {},
    "version": 1
  },
  "userdoc": {
    "kind": "user",
    "methods": {},
    "version": 1
  }
}