{
  "contractName": "TrustedIssuerRegistry",
  "abi": [
    {
      "anonymous": false,
      "inputs": [
        {
          "indexed": true,
          "internalType": "string",
          "name": "primaryDID",
          "type": "string"
        },
        {
          "indexed": false,
          "internalType": "string",
          "name": "validatorDID",
          "type": "string"
        }
      ],
      "name": "TrustedIssuerRegistered",
      "type": "event"
    },
    {
      "inputs": [
        {
          "internalType": "string",
          "name": "primaryDID",
          "type": "string"
        },
        {
          "internalType": "string",
          "name": "validatorDID",
          "type": "string"
        }
      ],
      "name": "registerTrustedIssuer",
      "outputs": [],
      "stateMutability": "nonpayable",
      "type": "function"
    },
    {
      "inputs": [
        {
          "internalType": "string",
          "name": "primaryDID",
          "type": "string"
        }
      ],
      "name": "getValidators",
      "outputs": [
        {
          "internalType": "string[]",
          "name": "validators",
          "type": "string[]"
        }
      ],
      "stateMutability": "view",
      "type": "function",
      "constant": true
    }
  ],
  "bytecode": "0x608060405234801561001057600080fd5b50610d42806100206000396000f3fe608060405234801561001057600080fd5b50600436106100365760003560e01c8063b0d57aa91461003b578063ef2bbd9114610057575b600080fd5b61005560048036038101906100509190610529565b610087565b005b610071600480360381019061006c91906105a1565b61028c565b60405161007e919061072b565b60405180910390f35b60008251116100cb576040517f08c379a00000000000000000000000000000000000000000000000000000000081526004016100c2906107aa565b60405180910390fd5b60008082510361010e576040518060400160405280600181526020017f300000000000000000000000000000000000000000000000000000000000000081525091505b60005b6000846040516101219190610806565b9081526020016040518091039020805490508110156101e2578260405160200161014b9190610806565b604051602081830303815290604052805190602001206000856040516101719190610806565b908152602001604051809103902082815481106101915761019061081d565b5b906000526020600020016040516020016101ab9190610944565b60405160208183030381529060405280519060200120036101cf57600191506101e2565b80806101da90610994565b915050610111565b5080610287576000836040516101f89190610806565b9081526020016040518091039020829080600181540180825580915050600190039060005260206000200160009091909190915090816102389190610b73565b50826040516102479190610806565b60405180910390207ffaa95e7bb5732fe66d321199e621f7d23fefac2af8d45b1a37c14a7d3913f2f28360405161027e9190610c7e565b60405180910390a25b505050565b60606000808360405161029f9190610806565b9081526020016040518091039020905060008180549050116102f6576040517f08c379a00000000000000000000000000000000000000000000000000000000081526004016102ed90610cec565b60405180910390fd5b80805480602002602001604051908101604052809291908181526020016000905b828210156103c35783829060005260206000200180546103369061087b565b80601f01602080910402602001604051908101604052809291908181526020018280546103629061087b565b80156103af5780601f10610384576101008083540402835291602001916103af565b820191906000526020600020905b81548152906001019060200180831161039257829003601f168201915b505050505081526020019060010190610317565b50505050915050919050565b6000604051905090565b600080fd5b600080fd5b600080fd5b600080fd5b6000601f19601f8301169050919050565b7f4e487b7100000000000000000000000000000000000000000000000000000000600052604160045260246000fd5b610436826103ed565b810181811067ffffffffffffffff82111715610455576104546103fe565b5b80604052505050565b60006104686103cf565b9050610474828261042d565b919050565b600067ffffffffffffffff821115610494576104936103fe565b5b61049d826103ed565b9050602081019050919050565b82818337600083830152505050565b60006104cc6104c784610479565b61045e565b9050828152602081018484840111156104e8576104e76103e8565b5b6104f38482856104aa565b509392505050565b600082601f8301126105105761050f6103e3565b5b81356105208482602086016104b9565b91505092915050565b600080604083850312156105405761053f6103d9565b5b600083013567ffffffffffffffff81111561055e5761055d6103de565b5b61056a858286016104fb565b925050602083013567ffffffffffffffff81111561058b5761058a6103de565b5b610597858286016104fb565b9150509250929050565b6000602082840312156105b7576105b66103d9565b5b600082013567ffffffffffffffff8111156105d5576105d46103de565b5b6105e1848285016104fb565b91505092915050565b600081519050919050565b600082825260208201905092915050565b6000819050602082019050919050565b600081519050919050565b600082825260208201905092915050565b60005b83811015610650578082015181840152602081019050610635565b60008484015250505050565b600061066782610616565b6106718185610621565b9350610681818560208601610632565b61068a816103ed565b840191505092915050565b60006106a1838361065c565b905092915050565b6000602082019050919050565b60006106c1826105ea565b6106cb81856105f5565b9350836020820285016106dd85610606565b8060005b8581101561071957848403895281516106fa8582610695565b9450610705836106a9565b925060208a019950506001810190506106e1565b50829750879550505050505092915050565b6000602082019050818103600083015261074581846106b6565b905092915050565b600082825260208201905092915050565b7f5072696d61727920444944206d757374206e6f7420626520656d7074792e0000600082015250565b6000610794601e8361074d565b915061079f8261075e565b602082019050919050565b600060208201905081810360008301526107c381610787565b9050919050565b600081905092915050565b60006107e082610616565b6107ea81856107ca565b93506107fa818560208601610632565b80840191505092915050565b600061081282846107d5565b915081905092915050565b7f4e487b7100000000000000000000000000000000000000000000000000000000600052603260045260246000fd5b7f4e487b7100000000000000000000000000000000000000000000000000000000600052602260045260246000fd5b6000600282049050600182168061089357607f821691505b6020821081036108a6576108a561084c565b5b50919050565b60008190508160005260206000209050919050565b600081546108ce8161087b565b6108d881866107ca565b945060018216600081146108f357600181146109085761093b565b60ff198316865281151582028601935061093b565b610911856108ac565b60005b8381101561093357815481890152600182019150602081019050610914565b838801955050505b50505092915050565b600061095082846108c1565b915081905092915050565b7f4e487b7100000000000000000000000000000000000000000000000000000000600052601160045260246000fd5b6000819050919050565b600061099f8261098a565b91507fffffffffffffffffffffffffffffffffffffffffffffffffffffffffffffffff82036109d1576109d061095b565b5b600182019050919050565b60006020601f8301049050919050565b600082821b905092915050565b600060088302610a297fffffffffffffffffffffffffffffffffffffffffffffffffffffffffffffffff826109ec565b610a3386836109ec565b95508019841693508086168417925050509392505050565b6000819050919050565b6000610a70610a6b610a668461098a565b610a4b565b61098a565b9050919050565b6000819050919050565b610a8a83610a55565b610a9e610a9682610a77565b8484546109f9565b825550505050565b600090565b610ab3610aa6565b610abe818484610a81565b505050565b5b81811015610ae257610ad7600082610aab565b600181019050610ac4565b5050565b601f821115610b2757610af8816108ac565b610b01846109dc565b81016020851015610b10578190505b610b24610b1c856109dc565b830182610ac3565b50505b505050565b600082821c905092915050565b6000610b4a60001984600802610b2c565b1980831691505092915050565b6000610b638383610b39565b9150826002028217905092915050565b610b7c82610616565b67ffffffffffffffff811115610b9557610b946103fe565b5b610b9f825461087b565b610baa828285610ae6565b600060209050601f831160018114610bdd5760008415610bcb578287015190505b610bd58582610b57565b865550610c3d565b601f198416610beb866108ac565b60005b82811015610c1357848901518255600182019150602085019450602081019050610bee565b86831015610c305784890151610c2c601f891682610b39565b8355505b6001600288020188555050505b505050505050565b6000610c5082610616565b610c5a818561074d565b9350610c6a818560208601610632565b610c73816103ed565b840191505092915050565b60006020820190508181036000830152610c988184610c45565b905092915050565b7f5072696d61727920444944206e6f7420666f756e642e00000000000000000000600082015250565b6000610cd660168361074d565b9150610ce182610ca0565b602082019050919050565b60006020820190508181036000830152610d0581610cc9565b905091905056fea2646970667358221220da6ea8953e2df2f3baa7751b4a993dc21d0ca0fd153cbf0db3e0adcc3442e6dc64736f6c63430008120033",
  "immutableReferences": {},
  "source": "// SPDX-License-Identifier: MIT\r\npragma solidity ^0.8.0;\r\n\r\ncontract TrustedIssuerRegistry {\r\n\r\n    mapping(string => string[]) private trustedIssuers;\r\n\r\n    event TrustedIssuerRegistered(string indexed primaryDID, string validatorDID);\r\n\r\n    function registerTrustedIssuer(string memory primaryDID, string memory validatorDID) public {\r\n        require(bytes(primaryDID).length > 0, \"Primary DID must not be empty.\");\r\n\r\n        bool alreadyAdded;\r\n        if (bytes(validatorDID).length == 0) {\r\n            validatorDID = \"0\";\r\n        }\r\n\r\n        // Comprueba si el validador ya est en la lista de validadores del DID\r\n        for (uint256 i = 0; i < trustedIssuers[primaryDID].length; i++) {\r\n            if (keccak256(abi.encodePacked(trustedIssuers[primaryDID][i])) == keccak256(abi.encodePacked(validatorDID))) {\r\n                alreadyAdded = true;\r\n                break;\r\n            }\r\n        }\r\n\r\n        // Si el validador no est en la lista, adelo\r\n        if (!alreadyAdded) {\r\n            trustedIssuers[primaryDID].push(validatorDID);\r\n            emit TrustedIssuerRegistered(primaryDID, validatorDID);\r\n        }\r\n    }\r\n\r\n    function getValidators(string memory primaryDID) public view returns (string[] memory validators) {\r\n        string[] storage validatorsList = trustedIssuers[primaryDID];\r\n        require(validatorsList.length > 0, \"Primary DID not found.\");\r\n        return validatorsList;\r\n    }\r\n}\r\n",
  "sourcePath": "C:\\Users\\edlv2\\VsCode Projects\\TFG\\contracts\\TrustedIssuerRegistry.sol",
  "compiler": {
    "name": "solc",
    "version": "0.8.18+commit.87f61d96.Emscripten.clang"
  },
  "schemaVersion": "3.4.12",
  "updatedAt": "2023-05-15T21:03:44.295Z",
  "networkType": "ethereum",
  "devdoc": {
    "kind": "dev",
    "methods": {},
    "version": 1
  },
  "userdoc": {
    "kind": "user",
    "methods": {},
    "version": 1
  }
}